:020000040800F2
:10000000005000209D2E0008610F00087D0F0008A1
:10001000E50F0008E70F0008E90F000800000000E6
:10002000000000000000000000000000EB0F0008CE
:10003000ED0F000800000000EF0F0008F10F0008AE
:10004000E52E0008E52E0008E52E0008E52E000844
:10005000E52E0008E52E0008E52E0008E52E000834
:10006000E52E0008E52E0008E52E0008E52E000824
:10007000E52E0008E52E0008E52E0008E52E000814
:10008000E52E0008E52E0008E52E0008E52E000804
:10009000E52E0008E52E0008E52E0008E52E0008F4
:1000A000E52E0008E52E0008E52E0008E52E0008E4
:1000B000E52E0008E52E0008E52E0008E52E0008D4
:1000C000E52E0008E52E0008E52E0008E52E0008C4
:1000D000E52E0008F90F0008E52E0008E52E0008BF
:1000E000E52E0008E52E0008E52E000800000000BF
:1000F0000000000000000000000000000000000000
:0C01000000000000000000005FF808F1A3
:1001100010B5054C237833B9044B13B10448AFF341
:1001200000800123237010BDDC01002000000000CE
:10013000145B000808B5034B1BB103490348AFF338
:10014000008008BD00000000E0010020145B0008F2
:10015000034613F8012B002AFBD1181A0138704707
:1001600081F0004102E000BF83F0004330B54FEA68
:1001700041044FEA430594EA050F08BF90EA020FD5
:100180001FBF54EA000C55EA020C7FEA645C7FEA68
:10019000655C00F0E2804FEA5454D4EB5555B8BF8B
:1001A0006D420CDD2C4480EA020281EA030382EAFC
:1001B000000083EA010180EA020281EA0303362D8E
:1001C00088BF30BD11F0004F4FEA01314FF4801C61
:1001D0004CEA113102D0404261EB410113F0004F73
:1001E0004FEA03334CEA133302D0524263EB43032A
:1001F00094EA050F00F0A780A4F10104D5F1200EC8
:100200000DDB02FA0EFC22FA05F2801841F1000122
:1002100003FA0EF2801843FA05F359410EE0A5F1F6
:1002200020050EF1200E012A03FA0EFC28BF4CF027
:10023000020C43FA05F3C01851EBE37101F00045DD
:1002400007D54FF0000EDCF1000C7EEB00006EEBEA
:100250000101B1F5801F1BD3B1F5001F0CD3490874
:100260005FEA30004FEA3C0C04F101044FEA4452CB
:1002700012F5800F80F09A80BCF1004F08BF5FEA52
:10028000500C50F1000041EB045141EA050130BD32
:100290005FEA4C0C404141EB0101013C28BFB1F544
:1002A000801FE9D291F0000F04BF01460020B1FA8F
:1002B00081F308BF2033A3F10B03B3F120020CDA62
:1002C0000C3208DD02F1140CC2F10C0201FA0CF040
:1002D00021FA02F10CE002F11402D8BFC2F1200CA5
:1002E00001FA02F120FA0CFCDCBF41EA0C0190405B
:1002F000E41AA2BF01EB0451294330BD6FEA0404A4
:100300001F3C1CDA0C340EDC04F11404C4F120028E
:1003100020FA04F001FA02F340EA030021FA04F3A0
:1003200045EA030130BDC4F10C04C4F1200220FAF7
:1003300002F001FA04F340EA0300294630BD21FA35
:1003400004F0294630BD94F0000F83F4801306BFFB
:1003500081F480110134013D4EE77FEA645C18BFEF
:100360007FEA655C29D094EA050F08BF90EA020F86
:1003700005D054EA000C04BF1946104630BD91EA7E
:10038000030F1EBF0021002030BD5FEA545C05D181
:100390004000494128BF41F0004130BD14F58004C0
:1003A0003CBF01F5801130BD01F0004545F0FE4134
:1003B00041F470014FF0000030BD7FEA645C1ABF69
:1003C000194610467FEA655C1CBF0B46024650EAA0
:1003D000013406BF52EA033591EA030F41F40021CC
:1003E00030BD00BF90F0000F04BF0021704730B552
:1003F0004FF4806404F132044FF000054FF0000127
:1004000050E700BF90F0000F04BF0021704730B5E7
:100410004FF4806404F1320410F0004548BF4042BC
:100420004FF000013EE700BF42004FEAE2014FEA11
:1004300031014FEA02701FBF12F07F4393F07F4FEC
:1004400081F06051704732F07F4208BF704793F0EF
:100450007F4F04BF41F40021704730B54FF4607402
:1004600001F0004521F000411CE700BF50EA010205
:1004700008BF704730B54FF000050AE050EA0102AE
:1004800008BF704730B511F0004502D5404261EB1E
:1004900041014FF4806404F132045FEA915C3FF45F
:1004A000D8AE4FF003025FEADC0C18BF03325FEAFC
:1004B000DC0C18BF033202EBDC02C2F1200300FAAD
:1004C00003FC20FA02F001FA03FE40EA0E0021FAD2
:1004D00002F11444BDE600BF70B54FF0FF0C4CF4C0
:1004E000E06C1CEA11541DBF1CEA135594EA0C0F72
:1004F00095EA0C0F00F0DEF82C4481EA030621EAAD
:100500004C5123EA4C5350EA013518BF52EA0335E7
:1005100041F4801143F4801338D0A0FB02CE4FF099
:100520000005E1FB02E506F00042E0FB03E54FF0C9
:100530000006E1FB03569CF0000F18BF4EF0010EC1
:10054000A4F1FF04B6F5007F64F5407404D25FEABD
:100550004E0E6D4146EB060642EAC62141EA555170
:100560004FEAC52040EA5E504FEACE2EB4F1FD0CB2
:1005700088BFBCF5E06F1ED8BEF1004F08BF5FEA30
:10058000500E50F1000041EB045170BD06F00046E2
:1005900046EA010140EA020081EA0301B4EB5C048F
:1005A000C2BFD4EB0C0541EA045170BD41F4801187
:1005B0004FF0000E013C00F3AB8014F1360FDEBFAC
:1005C000002001F0004170BDC4F10004203C35DA88
:1005D0000C341BDC04F11404C4F1200500FA05F30B
:1005E00020FA04F001FA05F240EA020001F00042AC
:1005F00021F0004110EBD37021FA04F642EB060122
:100600005EEA430E08BF20EAD37070BDC4F10C044B
:10061000C4F1200500FA04F320FA05F001FA04F20F
:1006200040EA020001F0004110EBD37041F10001FB
:100630005EEA430E08BF20EAD37070BDC4F1200506
:1006400000FA05F24EEA020E20FA04F301FA05F26E
:1006500043EA020321FA04F001F0004121FA04F216
:1006600020EA020000EBD3705EEA430E08BF20EAE6
:10067000D37070BD94F0000F0FD101F00046400020
:1006800041EB010111F4801F08BF013CF7D041EAA2
:10069000060195F0000F18BF704703F000465200A6
:1006A00043EB030313F4801F08BF013DF7D043EA77
:1006B0000603704794EA0C0F0CEA135518BF95EA2D
:1006C0000C0F0CD050EA410618BF52EA4306D1D1B4
:1006D00081EA030101F000414FF0000070BD50EAD3
:1006E000410606BF1046194652EA430619D094EA5D
:1006F0000C0F02D150EA013613D195EA0C0F05D147
:1007000052EA03361CBF104619460AD181EA03019A
:1007100001F0004141F0FE4141F470014FF0000052
:1007200070BD41F0FE4141F4780170BD70B54FF0ED
:10073000FF0C4CF4E06C1CEA11541DBF1CEA13556D
:1007400094EA0C0F95EA0C0F00F0A7F8A4EB05044F
:1007500081EA030E52EA03354FEA013100F0888046
:100760004FEA03334FF0805545EA131343EA12630F
:100770004FEA022245EA111545EA10654FEA0026C4
:100780000EF000419D4208BF964244F1FD0404F57D
:10079000407402D25B084FEA3202B61A65EB0305D9
:1007A0005B084FEA32024FF480104FF4002CB6EB96
:1007B000020E75EB030E22BFB61A754640EA0C0016
:1007C0005B084FEA3202B6EB020E75EB030E22BF56
:1007D000B61A754640EA5C005B084FEA3202B6EB97
:1007E000020E75EB030E22BFB61A754640EA9C0056
:1007F0005B084FEA3202B6EB020E75EB030E22BF26
:10080000B61A754640EADC0055EA060E18D04FEAE3
:10081000051545EA16754FEA06164FEAC30343EA83
:1008200052734FEAC2025FEA1C1CC0D111F4801F50
:100830000BD141EA00014FF000004FF0004CB6E749
:1008400011F4801F04BF01430020B4F1FD0C88BFE8
:10085000BCF5E06F3FF6AFAEB5EB030C04BFB6EBF3
:10086000020C5FEA500C50F1000041EB045170BDE6
:100870000EF0004E4EEA113114EB5C04C2BFD4EB13
:100880000C0541EA045170BD41F480114FF0000E97
:10089000013C90E645EA060E8DE60CEA135594EA13
:1008A0000C0F08BF95EA0C0F3FF43BAF94EA0C0F16
:1008B0000AD150EA01347FF434AF95EA0C0F7FF48B
:1008C00025AF104619462CE795EA0C0F06D152EADF
:1008D00003353FF4FDAE1046194622E750EA4106C3
:1008E00018BF52EA43067FF4C5AE50EA41047FF4D4
:1008F0000DAF52EA43057FF4EBAE12E74FF0FF3C39
:1009000006E000BF4FF0010C02E000BF4FF0010C09
:100910004DF804CD4FEA410C7FEA6C5C4FEA430C82
:1009200018BF7FEA6C5C1BD001B050EA410C0CBFD1
:1009300052EA430C91EA030F02BF90EA020F002033
:10094000704710F1000F91EA030F58BF994208BF9A
:1009500090422CBFD8176FEAE37040F00100704757
:100960004FEA410C7FEA6C5C02D150EA013C07D1AE
:100970004FEA430C7FEA6C5CD6D152EA033CD3D0F9
:100980005DF8040B704700BF8446104662468C46F3
:100990001946634600E000BF01B5FFF7B7FF002826
:1009A00048BF10F1000F01BD4DF808EDFFF7F4FF4F
:1009B0000CBF012000205DF808FB00BF4DF808EDDA
:1009C000FFF7EAFF34BF012000205DF808FB00BFFD
:1009D0004DF808EDFFF7E0FF94BF012000205DF81F
:1009E00008FB00BF4DF808EDFFF7CEFF94BF0120D4
:1009F00000205DF808FB00BF4DF808EDFFF7C4FFCD
:100A000034BF012000205DF808FB00BF4FEA410C15
:100A10007FEA6C5C02D150EA013C0AD14FEA430CF8
:100A20007FEA6C5C02D152EA033C02D14FF0000035
:100A300070474FF0010070474FEA410212F5001273
:100A400015D211D56FF47873B3EB625212D94FEA15
:100A5000C12343F0004343EA505311F0004F23FAFF
:100A600002F018BF404270474FF00000704750EA54
:100A7000013005D111F0004008BF6FF00040704711
:100A80004FF00000704700BF00B585B00023009311
:100A90000193029303930091012301930323039392
:100AA000694600F0D5FE05B05DF804FB30B585B0B1
:100AB000304B9A6942F004029A619A6902F004028A
:100AC0000192019A9A6942F008029A619A6902F0C9
:100AD00008020292029A9A6942F010029A619B6996
:100AE00003F010030393039B234C01212046FFF7DF
:100AF000CBFF02212046FFF7C7FF04212046FFF766
:100B0000C3FF08212046FFF7BFFF10212046FFF753
:100B1000BBFF20212046FFF7B7FF184D4FF40041DF
:100B20002846FFF7B1FF00220121204600F0A2FF76
:100B300000220221204600F09DFF002204212046D1
:100B400000F098FF00220821204600F093FF0022C9
:100B50001021204600F08EFF00222021204600F0C8
:100B600089FF00224FF40041284600F083FF05B0C2
:100B700030BD00BF001002400008014000100140DD
:100B800008B50948094B0360094B436000238360A3
:100B9000C36003610C2242618361C36101F014F9F7
:100BA00008B100231B6008BD4C0200200038014042
:100BB00080841E0008B50A480A4B03600A4B436054
:100BC00000238360C3604FF480420261436183610C
:100BD000C361036201F064FD08B100231B6008BD1E
:100BE000F80100200054004010EB090000B587B068
:100BF0004FF0FF330122A621214802F085F818B1F9
:100C0000002007B05DF804FB0F238DF815304FF07E
:100C1000FF330293012301930DF1150200922C2260
:100C2000A621174801F01AFE08B10020E9E70823C1
:100C30008DF816304FF0FF330293012301930DF12D
:100C4000160200922D22A6210D4801F007FE08B1E0
:100C50000020D6E70B238DF817304FF0FF330293B7
:100C6000012301930DF1170200923122A6210448BD
:100C700001F0F4FD08B90120C3E70020C1E700BF7F
:100C8000F80100200C293BD170B504460D461646EC
:100C9000002837D0002A37D08A1C1A60002003E0D1
:100CA0001968013119600130A84207D2215CAA29D4
:100CB000F6D0BB29F4D0CC29F5D1F1E7186802F0C1
:100CC00037F90246306008B3AA2302F8013B00233B
:100CD00005E0CC2111700178517002320133AB4232
:100CE0000AD2E018E15CAA29F3D0BB29F1D0CC29C3
:100CF000EFD002F8011BF1E7BB231370012070BD98
:100D0000002070470020FAE70020F8E70020F6E70F
:100D100010B58AB0384C01221021204600F0AAFEFE
:100D200000222021204600F0A5FEFFF75FFF98B1CA
:100D3000314C00221021204600F09CFE012220218F
:100D4000204600F097FEFFF751FF70B92B4802F0E4
:100D5000C9FE00231B6008E0294802F0C3FE0023FF
:100D60001B60E5E7059802F0EBF8234C0122102107
:100D7000204600F07FFE00222021204600F07AFE6F
:100D80004FF0FF3302930623019307AB0093012337
:100D90003222A6211B4801F013FE40BB0022102185
:100DA000204600F067FE01222021204600F062FE6E
:100DB0004FF0FF330293062301930DF122030093BA
:100DC00001233222A6210F4801F0FAFD78B906ABC3
:100DD00005AA0C2107A8FFF755FF4FF0FF33BDF818
:100DE00018200599084801F01EF80028BAD0002301
:100DF0001B600AB010BD00BF00080140505B000836
:100E0000345B0008F80100204C02002070B582B06D
:100E10000D46164600240BE00D4B1B88ADF8043040
:100E20004FF0FF33022201A90A4800F0FCFF013411
:100E3000A6420AD929192B5D0A2BEDD04FF0FF33BA
:100E40000122044800F0EFFFF1E7304602B070BD28
:100E5000305B00084C02002000B591B02822002130
:100E600006A802F075F800230193029303930493FC
:100E700005930223069301220A9210220B920D93EE
:100E80004FF460130F9306A800F0C6F908B10023D1
:100E90001B600F23019302210291002303934FF45F
:100EA00080620492059301A800F0F6FB08B10023CC
:100EB0001B6011B05DF804FB38B500F05FF9FFF777
:100EC000CBFFFFF7F3FDFFF75BFEFFF773FE002498
:100ED00013E0204D01224FF40041284600F0CAFDE6
:100EE000322000F06FF900224FF40041284600F054
:100EF000C1FD322000F066F90134012CE9D900244B
:100F000000E00134FE2C0DD84FF47A730222A1B216
:100F1000114801F0F9FE0028F3D121460F4802F0F4
:100F20005BFDEEE7FFF7F4FE0A4C01224FF40041AF
:100F3000204600F09FFD4FF47A7000F043F9002244
:100F40004FF40041204600F095FD4FF47A7000F018
:100F500039F9E9E700100140F80100206C5B000856
:100F6000FEE70022824208D282B0019B0133019346
:100F700001328242F9D302B07047704700B585B0A4
:100F800072B600240094019402940394134D2246F7
:100F90004FF48041284600F06DFD4FF480430093EC
:100FA000012301930294022303936946284600F02B
:100FB0004FFC0A4D01224FF48041284600F05AFDB3
:100FC000074C2046FFF7CDFF00224FF48041284612
:100FD00000F050FD2046FFF7C4FFEAE70010014093
:100FE000C0270900FEE7FEE7FEE77047704770473D
:100FF00008B500F0D5F808BD08B5024801F002F8C0
:1010000008BD00BF4C02002082B00E4B9A6942F02E
:1010100001029A619A6902F001020092009ADA696B
:1010200042F08052DA61DB6903F080530193019B47
:10103000054A536823F0E06343F00073536002B045
:10104000704700BF001002400000014010B586B09C
:10105000002302930393049305930268114B9A4271
:1010600001D006B010BD104CA36943F00803A36182
:10107000A36903F008030093009BC023029312238B
:1010800003930323059302A9084800F0E1FBE369F9
:1010900043F40013E361E36903F400130193019B3C
:1010A000DFE700BF0054004000100240000C014088
:1010B00030B587B000240294039404940594194B2E
:1010C0009A6942F480429A619A6902F480420092DD
:1010D000009A9A6942F004029A619B6903F0040342
:1010E0000193019B4FF400730293022303930323A4
:1010F00005930D4D02A9284600F0AAFB4FF480632A
:1011000002930394049402A9284600F0A1FB22460E
:101110002146252000F034FD252000F069FD07B0B0
:1011200030BD00BF001002400008014070470000C1
:1011300010B504460E4B18784FF47A73B3FBF0F3F6
:101140000C4A1068B0FBF3F000F060FD68B90F2C9A
:1011500001D901200AE0002221464FF0FF3000F0C3
:101160000FFD054B1C60002000E0012010BD00BFFA
:1011700004000020000000200800002008B5074AF5
:10118000136843F010031360032000F0E7FC0F2006
:10119000FFF7CEFFFFF738FF002008BD0020024018
:1011A000034A1168034B1B780B441360704700BF60
:1011B0009002002004000020014B1868704700BF17
:1011C0009002002038B50446FFF7F6FF0546B4F15B
:1011D000FF3F02D0044B1B781C44FFF7EDFF401B80
:1011E000A042FAD338BD00BF0400002082B0084BF3
:1011F0001B68084AA2FB03235B0A00FB03F301936D
:1012000000BF019B5A1E0192002BF9D102B070471A
:1012100000000020D34D6210002800F0F18170B56D
:1012200082B00446036813F0010F2CD0994B5B6821
:1012300003F00C03042B1DD0964B5B6803F00C03EA
:10124000082B12D06368B3F5803F41D0002B55D1F5
:1012500003F1804303F504331A6822F480321A60E4
:101260001A6822F480221A6037E08A4B5B6813F414
:10127000803FE7D0874B1B6813F4003F03D06368BF
:10128000002B00F0BF81236813F0020F75D0814B53
:101290005B6813F00C0F5FD07E4B5B6803F00C03B0
:1012A000082B54D02369002B00F08A807A4B01224E
:1012B0001A60FFF781FF0546764B1B6813F0020F9B
:1012C00075D1FFF779FF401B0228F5D903209EE175
:1012D000704A136843F480331360636843B3FFF7C5
:1012E0006BFF05466B4B1B6813F4003FCBD1FFF738
:1012F00063FF401B6428F5D9032088E1B3F5A02FD4
:1013000009D0644B1A6822F480321A601A6822F4F9
:1013100080221A60E1E703F18043A3F53C331A68A9
:1013200042F480221A601A6842F480321A60D4E7CC
:10133000FFF742FF0546574B1B6813F4003FA2D04E
:10134000FFF73AFF401B6428F5D903205FE1514BBA
:101350005B6813F4803FA5D14E4B1B6813F0020F5E
:1013600003D02369012B40F04F814A4A136823F0D0
:10137000F803616943EAC1031360236813F0080F9F
:1013800033D0A369002B5CD0434B0122C3F88024E7
:10139000FFF712FF05463F4B5B6A13F0020F21D1A6
:1013A000FFF70AFF401B0228F5D903202FE1394A35
:1013B000136823F0F803616943EAC1031360DCE7B3
:1013C000354B00221A60FFF7F7FE0546314B1B68CC
:1013D00013F0020FD1D0FFF7EFFE401B0228F5D922
:1013E000032014E10120FFF701FF236813F0040F2D
:1013F00000F09680274BDB6913F0805F34D1254BDA
:10140000DA6942F08052DA61DB6903F080530193BC
:10141000019B0125214B1B6813F4807F26D0E368D4
:10142000012B3DD0002B53D103F1804303F504334E
:101430001A6A22F001021A621A6A22F004021A627F
:1014400033E0154B0022C3F88024FFF7B5FE0546B4
:10145000104B5B6A13F0020FC7D0FFF7ADFE401BC5
:101460000228F5D90320D2E00025D3E70B4A136800
:1014700043F480731360FFF79FFE0646074B1B681B
:1014800013F4807FCBD1FFF797FE801B6428F5D93A
:101490000320BCE000100240000042420070004007
:1014A0005F4A136A43F001031362E36833B3FFF743
:1014B00083FE06465A4B1B6A13F0020F2FD1FFF72B
:1014C0007BFE801B41F288339842F3D903209EE0D3
:1014D000052B09D0524B1A6A22F001021A621A6ACD
:1014E00022F004021A62E0E74D4B1A6A42F004024D
:1014F0001A621A6A42F001021A62D6E7FFF75CFE2E
:101500000646474B1B6A13F0020F08D0FFF754FE44
:10151000801B41F288339842F3D9032077E0E5B984
:10152000E369002B72D03E4A526802F00C02082A8E
:1015300056D0022B17D03B4B00221A66FFF73CFE19
:101540000446374B1B6813F0007F47D0FFF734FE8B
:10155000001B0228F5D9032059E0314AD36923F052
:101560008053D361DCE72F4B00221A66FFF724FE7D
:1015700005462B4B1B6813F0007F06D0FFF71CFEBF
:10158000401B0228F5D9032041E0236AB3F5803FD0
:101590001AD023494B6823F47413226A606A024309
:1015A00013434B601F4B01221A66FFF705FE0446EA
:1015B0001B4B1B6813F0007F0ED1FFF7FDFD001BD6
:1015C0000228F5D9032022E0154A536823F400339A
:1015D000A1680B435360DCE7002018E0002016E010
:1015E000012B16D00E4B5B6803F48031226A9142C6
:1015F00011D103F47013626A93420ED1002006E009
:1016000001207047012002E0012000E0002002B02C
:1016100070BD0120FBE70120F9E70120F7E700BFDB
:10162000001002400000424286B0174B0FCB0DF174
:10163000180C0CE90F0040F20123ADF80430134BF5
:101640005B6803F00C02082A02D0114806B070470C
:10165000C3F3834218326A4412F8100C13F4803F2B
:101660000DD00A4B5B68C3F3404318336B4413F847
:10167000143C074A02FB00F0B0FBF3F0E6E7054B31
:1016800003FB00F0E2E700BF885B000800100240A7
:1016900000127A0000093D00002800F0A08070B51B
:1016A0000D460446524B1B6803F007038B420BD2D6
:1016B0004F4A136823F007030B431360136803F0CA
:1016C00007038B4240F08D80236813F0020F17D080
:1016D00013F0040F04D0474A536843F4E0635360A7
:1016E000236813F0080F04D0424A536843F4605350
:1016F0005360404A536823F0F003A1680B435360E2
:10170000236813F0010F31D06368012B20D0022B26
:1017100025D0384A126812F0020F64D035494A6861
:1017200022F0030213434B60FFF746FD0646314BA0
:101730005B6803F00C036268B3EB820F16D0FFF70F
:101740003BFD801B41F288339842F0D9032045E0ED
:10175000284A126812F4003FE0D101203EE0254AF9
:10176000126812F0007FD9D1012037E0204B1B68AE
:1017700003F00703AB420AD91D4A136823F007039D
:101780002B431360136803F00703AB422DD123688A
:1017900013F0040F06D0174A536823F4E063E1689E
:1017A0000B435360236813F0080F07D0114A5368A6
:1017B00023F46053216943EAC1035360FFF734FF08
:1017C0000C4B5B68C3F303130B4AD35CD8400B4B41
:1017D00018600B4B1868FFF7ABFC002070BD0120B0
:1017E00070470120FAE70120F8E70120F6E700BF83
:1017F0000020024000100240705B00080000002042
:1018000008000020014B1868704700BF000000204E
:1018100008B5FFF7F7FF044B5B68C3F30223034AE5
:10182000D35CD84008BD00BF00100240805B0008B8
:1018300008B5FFF7E7FF044B5B68C3F3C223034A15
:10184000D35CD84008BD00BF00100240805B000898
:1018500070B582B00024A446A6E0804DAA4210D004
:1018600007D97F4DAA420CD005F58035AA4208D091
:1018700013E0A5F58015AA4203D005F57025AA420C
:1018800007D18A68002A58D0012A51D04361082420
:1018900003E0A5F58015AA42F3D0BEF1FF0F4ED8A4
:1018A0000646BEF1FF0F4CD84FEA8C0233680F2575
:1018B000954023EA050304FA02F2134333604B68B0
:1018C00013F0805F6ED0674B9A6942F001029A6113
:1018D0009B6903F001030193019B4FEA9C02951C55
:1018E000614B53F825600CF003039D000F23AB40C0
:1018F00026EA03065D4B984229D003F5806398429F
:1019000000F08E8003F58063984200F08B8003F531
:101910008063984219D004231AE0CC68BDE7CC68F4
:101920000434BAE7CC680834B7E7CC680C34B4E7C1
:1019300003610824B1E70024AFE70424ADE7061DE6
:10194000AFE7ACF108029200B0E7032300E0002308
:10195000AB4033430232444D45F822304B6813F418
:10196000803F61D0424A136843EA0E0313604B681C
:1019700013F4003F5ED03E4A536843EA0E035360BF
:101980004B6813F4801F5BD0394A936843EA0E0317
:1019900093604B6813F4001F58D0354AD36843EA6C
:1019A0000E03D3600CF1010C0A6832FA0CF353D029
:1019B000012303FA0CF302EA030E33EA0202F1D127
:1019C0004A68122A3FF649AF122A3FF666AF01A5D0
:1019D00055F822F0831800081B1900082519000883
:1019E000371900089B1800089B1800089B1800086E
:1019F0009B1800089B1800089B1800089B180008FB
:101A00009B1800089B1800089B1800089B180008EA
:101A10009B1800089B1800081F1900082B190008C4
:101A2000012395E7022393E7114A136823EA0E0383
:101A300013609CE70E4A536823EA0E0353609FE746
:101A40000B4A936823EA0E039360A2E7084AD3681F
:101A500023EA0E03D360A5E702B070BD0000221098
:101A60000000311000100240000001400008014059
:101A7000000401400AB10161704709040161704727
:101A800090F82130022B06D004238363002380F8D2
:101A90002030012070470268136823F00E031360A2
:101AA0000268136823F001031360036CC16B012209
:101AB00002FA03F34B6080F82120002380F82030E5
:101AC0001846704708B590F82130022B03D0042344
:101AD0008363012008BD0268136823F00E031360BE
:101AE0000268136823F0010313600368194A9342E4
:101AF00014D0143293421FD0143293421ED01432A9
:101B000093421ED0143293421ED01432934202D01C
:101B10004FF0807203E04FF4801200E001220E4B80
:101B20005A60012380F82130002380F82030436B75
:101B30006BB198470020CDE71022F0E74FF4807298
:101B4000EDE74FF48052EAE74FF48032E7E70020F8
:101B5000C0E700BF0800024000000240074AD36807
:101B600023F4E0631B041B0C000200F4E060034359
:101B700043F0BF6343F40033D360704700ED00E0EF
:101B800000B5194BDB68C3F30223C3F1070CBCF1AA
:101B9000040F28BF4FF0040C03F1040EBEF1060F32
:101BA00018D9033B4FF0FF3E0EFA0CFC21EA0C0162
:101BB00099400EFA03F322EA0303194300280BDBD2
:101BC0000901C9B200F1604000F5614080F80013DE
:101BD0005DF804FB0023E5E700F00F000901C9B23E
:101BE000024B1954F4E700BF00ED00E014ED00E0F3
:101BF000002807DB00F01F02400901239340024A3E
:101C000042F82030704700BF00E100E00138B0F139
:101C1000807F0BD24FF0E0235861054AF02182F813
:101C200023100020986107221A6170470120704735
:101C300000ED00E00268D36823F49073D36002687B
:101C4000536923F001035361036B012B05D020235B
:101C500080F83E300023036370470268D36823F0A6
:101C60001003D360F3E790F83D30DBB2212B01D0B5
:101C7000022070478368B3F5805F17D0036A5A1C4F
:101C800002621A7803685A60C38C9BB2013B9BB214
:101C9000C3844BB90268D36823F08003D360026821
:101CA000D36843F04003D360002070470369002BE2
:101CB000E4D1036A1B880268C3F308035360036A14
:101CC00002330362E0E7000010B5044602681369BE
:101CD00023F44053C1680B431361836802691343C3
:101CE00042691A430168CB6823F4B05323F00C0314
:101CF0001343CB600268536923F4407381690B433B
:101D000053610268134B9A4220D0FFF781FD0246CF
:101D100002EB820202EB820263689B00B2FBF3F2E9
:101D20000D48A0FB02314909642303FB11231B0169
:101D30003233A0FB03235B0903F0F00202EB011234
:101D400003F00F03216813448B6010BDFFF770FD93
:101D50000246DDE7003801401F85EB512DE9F843CD
:101D600005460F4616469946DDF820802C68246803
:101D700037EA04030CBF4FF0010C4FF0000CB445E0
:101D80001FD1B8F1FF3FF1D0B8F1000F05D0FFF738
:101D900013FAA0EB09004045E8D92A68D36823F478
:101DA000D073D3602A68536923F001035361202361
:101DB00085F83D3085F83E30002385F83C3003201F
:101DC00000E00020BDE8F88358B310B5044690F851
:101DD0003D300BB3242384F83D302268D36823F4CC
:101DE0000053D3602046FFF76FFF2268136923F486
:101DF000904313612268536923F02A0353612268D8
:101E0000D36843F40053D36000202064202384F877
:101E10003D3084F83E3010BD80F83C30FFF748F983
:101E2000D8E7012070472DE9F04182B01E4690F8B6
:101E30003D30DBB2202B54D104460D46904600299C
:101E400053D0002A53D090F83C30012B51D00123BD
:101E500080F83C3000230364212380F83D30FFF7F5
:101E6000ABF90746A4F82480A4F82680A368B3F54C
:101E7000805F05D04FF00008002384F83C3012E06A
:101E8000236913B14FF00008F6E7A8460025F3E7F1
:101E900038F8023B2268C3F308035360E28C92B225
:101EA000013A92B2E284E38C9BB273B100963B4656
:101EB000002280212046FFF751FFE0B9002DE7D036
:101EC00015F8012B23685A60E8E700963B4600228C
:101ED00040212046FFF742FF78B9202384F83D30A7
:101EE00000E0022002B0BDE8F0810120FAE7012005
:101EF000F8E70220F6E70320F4E70320F2E7704753
:101F000008B50168CA6822F04002CA60202280F841
:101F10003D20FFF7F4FF002008BD7047704708B56B
:101F2000406A0023C385C384FFF7F8FF08BD7047EC
:101F300090F83E30DBB2222B60D18368B3F5805F2E
:101F400046D0826AB3F5805F04D0002B4DD103697F
:101F5000002B4AD103685B681370836A0133836284
:101F6000C38D9BB2013B9BB2C385002B48D100B50A
:101F700083B00268D36823F02003D3600268D3687B
:101F800023F48073D3600268536923F00103536123
:101F9000202380F83E30036B012B2CD100230363F8
:101FA0000268D36823F01003D36003681A6812F044
:101FB000100F06D0002201921A6801925B6801930B
:101FC000019B818DFFF7B3FF002003B05DF804FB98
:101FD0000269002AB5D1826A03685B68C3F308030B
:101FE0001380836A02338362BAE703685B6803F095
:101FF0007F031370B1E7FFF790FFE5E7022070471A
:102000000020704730B583B0044602681368D0687A
:10201000516913F00F0505D113F0200F02D010F015
:10202000200F19D12DB111F0010119D110F4907FB9
:1020300016D1216B012975D013F0800F03D010F059
:10204000800F40F0D78013F0400F03D010F0400F06
:1020500040F0D48003B030BD2046FFF769FFF9E7B8
:1020600013F0010F06D010F4807F03D0226C42F0F1
:102070000102226413F0040F04D019B1226C42F063
:102080000202226413F0020F04D019B1226C42F054
:102090000402226413F0080F07D010F0200F00D1C3
:1020A00019B1226C42F008022264226C002AD1D0BD
:1020B00013F0200F02D010F0200F21D123685B69AC
:1020C00003F04003226C12F0080F00D123B3204626
:1020D000FFF7B0FD23685A6912F0400F18D05A6913
:1020E00022F040025A61A36B73B1464A5A63A06B57
:1020F000FFF7E8FC0028ADD0A06B436B9847A9E739
:102100002046FFF715FFD9E72046FFF707FFA1E7B5
:102110002046FFF703FF9DE72046FFF7FFFE002361
:10212000236497E713F0100F86D010F0100F83D0C0
:10213000002301931368019353680193019B536932
:1021400013F0400F32D0A16B0B685B689BB2002B81
:1021500080D0A08D98427FF67DAFE3858B69202BE0
:1021600008D1A18DE38D9BB2C91A89B22046FFF731
:10217000DEFE6FE7D36823F48073D360226853696F
:1021800023F0010353612268536923F04003536134
:10219000202384F83E30002323632268D36823F091
:1021A0001003D360A06BFFF76BFCDAE7A18DE38D22
:1021B0009BB2C91A89B2E38D9BB2002B3FF44AAFA0
:1021C00000293FF447AFD36823F49073D3602268AB
:1021D000536923F001035361202384F83E30002328
:1021E00023632268D36823F01003D3602046FFF7EF
:1021F0009EFE2FE72046FFF736FD2BE72046FFF730
:102200007FFE27E71F1F000803685A6912F4806FDA
:1022100001D1002070476FF480625A61002303638C
:10222000202280F83D2080F83E30026C42F004020B
:10223000026480F83C30012070472DE9F0410746E8
:102240000D4690461E4624E0FEF7B6FF069BC01AD8
:10225000B04200D8EEB900233B63202287F83D202E
:1022600087F83E303A6C42F020023A6487F83C30FE
:1022700001201EE03B689C6925EA040C1FFA8CFCD7
:10228000BCFA8CFC4FEA5C1CE04511D1B6F1FF3F73
:10229000DAD1C5F30743012BECD13B685B6925EA32
:1022A000030C1FFA8CFCBCFA8CFC4FEA5C1CEBE7BD
:1022B0000020BDE8F0812DE9F04105460E461746A5
:1022C00098463DE01A6842F400721A602B686FF479
:1022D00080625A6100232B63202285F83D2085F817
:1022E0003E302A6C42F004022A6485F83C3001201A
:1022F00034E0FEF761FFA0EB0800B84200D8FFB958
:1023000000232B63202285F83D2085F83E302A6C7F
:1023100042F020022A6485F83C3001201EE02B6840
:102320009C6926EA0404A4B2003C18BF0124A4B1AD
:102330002B685A6912F4806FC4D1B7F1FF3FD8D12E
:10234000C6F30743012BEAD12B685C6926EA040433
:10235000A4B2003C18BF0124E9E70020BDE8F081E9
:1023600070B504460D46164623685B6913F0800F6E
:102370001CD12046FFF748FFD0B9B5F1FF3FF3D09D
:10238000FEF71AFF801BA84201D8002DECD10023D4
:102390002363202284F83D2084F83E30226C42F0F2
:1023A0002002226484F83C30012000E0002070BD4F
:1023B0000120FCE72DE9F04385B004460D46914627
:1023C0001F46DDF830800D9E0368196841F4807166
:1023D00019600096434600224FF00111FFF72DFFD0
:1023E00060B9236805F0FE051D6133464246264963
:1023F0002046FFF760FF68B1012008E023681B68F2
:1024000013F4807F02D04FF400732364032005B0DF
:10241000BDE8F0830023039323685A6903929B6904
:102420000393039B324641462046FFF799FF30B99C
:10243000012F0FD123685FFA89F61E61E7E7236C4D
:10244000042B01D00120E2E72268136843F40073F3
:102450001360F7E723684FEA19221A6132464146B2
:102460002046FFF77DFF20B923685FFA89F61E61D9
:10247000CDE7236C042B01D00120C8E72268136844
:1024800043F400731360F7E7020001002DE9F04701
:1024900084B004460D46164699460C9FDDF83480FC
:1024A0000268136843F4806313600368196841F499
:1024B00080711960CDF800803B4600224FF0011179
:1024C000FFF7BBFE70B95FFA85FA236805F0FE05D9
:1024D0001D6143463A4641492046FFF7ECFE68B18C
:1024E000012008E023681B6813F4807F02D04FF4BA
:1024F00000732364032004B0BDE8F0870023039336
:1025000023685A6903929B690393039B42463946A9
:102510002046FFF725FF80B9B9F1010F18D12368D4
:10252000F6B21E61424639462046FFF719FF68B3EE
:10253000236C042B24D00120DDE7236C042B01D075
:102540000120D8E72268136843F400731360F7E7AB
:102550002368320A1A61424639462046FFF700FFD7
:1025600018B92368F6B21E61DCE7236C042B01D096
:102570000120C0E72268136843F400731360F7E793
:102580002268136843F400731360D4E72268136869
:1025900043F480731360CDF800803B4600224FF077
:1025A00001112046FFF749FE68B922684AF001038D
:1025B000136143463A4609492046FFF77CFE00284E
:1025C00099D0012097E723681B6813F4807F02D01D
:1025D0004FF40073236403208DE700BF0200010065
:1025E00070B504460D46164623685B6913F0040F68
:1025F0001CD12046FFF708FED0B9B5F1FF3FF3D05C
:10260000FEF7DAFD801BA84201D8002DECD1002393
:102610002363202284F83D2084F83E30226C42F06F
:102620002002226484F83C30012000E0002070BDCC
:102630000120FCE770B505460C4616462B68596923
:1026400011F0400F29D1596911F0100F15D1FEF783
:10265000B3FD801BA04201D8002CEFD100232B63D7
:10266000202285F83D2085F83E302A6C42F0200279
:102670002A6485F83C30012070BD6FF010025A6169
:1026800000232B63202285F83D2085F83E302A6CFC
:102690002A6485F83C300120EEE70020ECE70000DA
:1026A000002800F0CC8070B5044690F83D30002B37
:1026B00077D0242384F83D302268136823F0010387
:1026C00013602268136843F40043136022681368A0
:1026D00023F400431360FFF79BF862685A4B9A4259
:1026E00064D85A4B98428CBF00230123002B40F042
:1026F000A8805749A1FB00318B0C25686A6822F03D
:102700003F0242EA91426A6021680A6A22F03F026F
:1027100066684D4DAE424FD8013313430B622168BA
:10272000CA6922F44F4222F0FF026668464B9E427D
:102730004CD8431E7600B3FBF6F3013340F6FC7031
:10274000034278D0C3F30B031343CB6121680B68BA
:1027500023F0C003E269206A024313430B6021683F
:102760008B6823F4034323F0FF032269E0680243EC
:1027700013438B602168CB6823F0FF036269A06973
:1027800002431343CB602268136843F001031360D4
:1027900000202064202384F83D30206384F83E002C
:1027A00070BD80F83C30FEF751FC82E7294B98421F
:1027B0008CBF0023012399E74FF4967505FB03F3C3
:1027C000254DA5FB03539B090133A6E7A368BBB9BD
:1027D000451E06EB460CB5FBFCF50135C5F30B05B4
:1027E000B5FA85F56D0945BBC3B9013806EB46035B
:1027F000B0FBF3F30133C3F30B0343F40043A3E74C
:10280000451E06EB860C0CEB8C0CB5FBFCF501357C
:10281000C5F30B05B5FA85F56D09E4E7013806EB5C
:10282000860303EB8303B0FBF3F30133C3F30B0322
:1028300043F4404388E7042386E7012384E701202B
:1028400070470120ACE700BFA08601007F841E0016
:1028500083DE1B43FF083D00D34D62102DE9F0439A
:1028600083B004460F46904699460C9EFEF7A4FCA2
:10287000054694F83D00C0B2202803D0022003B0E2
:10288000BDE8F0830095192301224B492046FFF74C
:10289000D4FC002840F0898094F83C30012B00F0F3
:1028A0008680012384F83C3023681A6812F0010FF7
:1028B00003D11A6842F001021A602268136823F4F7
:1028C00000631360212384F83D30402384F83E30B8
:1028D000002323640A9B6362BDF82C306385638DFB
:1028E0002385364BE362019500964B4642463946B6
:1028F0002046FFF75FFD00285BD1238D002B35D0EC
:102900002A4631462046FFF72BFD20BB626A23682A
:1029100012781A61626A531C6362218D013989B28F
:102920002185638D9BB2013B9BB263852368586907
:1029300010F0040FE1D00029DFD052781A61636AE9
:1029400001336362238D013B2385638D9BB2013B81
:102950009BB26385D1E7236C042B01D001208EE765
:102960002268136843F400731360F7E72A46314680
:102970002046FFF735FE50B1236C042B01D0012017
:102980007DE72268136843F400731360F7E7226859
:10299000136843F400731360202384F83D30002350
:1029A00084F83E3084F83C3069E7022067E7022073
:1029B00065E7012063E700BF020010000000FFFF91
:1029C0002DE9F04389B004460F4690469946129E81
:1029D00000230793FEF7F0FB054694F83D00C0B2D4
:1029E000202804D00227384609B0BDE8F0830095BE
:1029F0001923012281492046FFF71FFC002840F0DF
:102A0000728194F83C30012B00F06F81012384F82F
:102A10003C3023681A6812F0010F03D11A6842F0A3
:102A200001021A602268136823F4006313602223F2
:102A300084F83D30402384F83E3000232364109B0B
:102A40006362BDF844306385638D23856C4BE3621C
:102A5000019500964B46424639462046FFF716FD43
:102A60000746002840F04381238D5BB90393236818
:102A70005A6903929A690392039A1A6842F400729F
:102A80001A60EDE0012B0FD0022B21D022681368D1
:102A900043F4806313600023069323685A69069207
:102AA0009B690693069BDBE02268136823F480632E
:102AB000136072B60023049323685A6904929A69DA
:102AC0000492049A1A6842F400721A6062B6C7E06F
:102AD0002268136843F40063136072B60023059301
:102AE00023685A6905929A690592059A1A6822F430
:102AF00080621A6062B6B3E02A4631462046FFF78C
:102B000099FD002840F0F58023681A69636A1A70FD
:102B1000636A01336362238D013B2385638D9BB21E
:102B2000013B9BB263859BE000953346002235490B
:102B30002046FFF782FB002840F0DF802268136800
:102B400023F48063136072B623681A69636A1A708B
:102B5000636A01336362238D013B2385638D9BB2DE
:102B6000013B9BB26385284B1B68DB08274AA2FB0D
:102B700003231B0A03EB8303C3EBC3030793079BE6
:102B8000013B0793079B002B28D023685A6912F05A
:102B9000040FF4D01A6842F400721A6023681A69AC
:102BA000636A1A70636A01336362238D013B238574
:102BB000638D9BB2013B9BB2638562B623681A6941
:102BC000636A1A70636A01336362238D013B238554
:102BD000638D9BB2013B9BB2638541E0236320225E
:102BE00084F83D2084F83E30226C42F020022264BA
:102BF00062B684F83C300127F5E600BF0200100001
:102C00000000FFFF040001000000002089B5F81457
:102C10002A4631462046FFF70DFD00286FD1236874
:102C20001A69636A1A70626A531C6362238D013BDE
:102C30002385638D9BB2013B9BB2638523685969F1
:102C400011F0040F0CD01B695370636A0133636287
:102C5000238D013B2385638D9BB2013B9BB2638532
:102C6000238D002B36D0032BD2D8012B3FF444AF59
:102C7000022B7FF459AF00953346002221492046AC
:102C8000FFF7DBFA002836D172B62268136843F4E6
:102C90000073136023681A69636A1A70636A0133E8
:102CA0006362238D013B2385638D9BB2013B9BB205
:102CB000638562B623681A69636A1A70636A0133AE
:102CC0006362238D013B2385638D9BB2013B9BB2E5
:102CD0006385C5E7202384F83D30002384F83E3027
:102CE00084F83C307FE602277DE602277BE6012759
:102CF00079E6012777E6012775E6012773E60127C4
:102D000071E600BF040001002DE9F04385B00446E0
:102D1000884691461D46FEF74FFA94F83D30DBB2E7
:102D2000202B03D0022005B0BDE8F08306460090BA
:102D30001923012258492046FFF77FFA002840F066
:102D4000A28094F83C30012B00F09F80012384F88E
:102D50003C3023681A6812F0010F03D11A6842F060
:102D600001021A602268136823F4006313602423AD
:102D700084F83D3000232364A3F58033E362012708
:102D800040E023681B6813F4807F02D04FF4007387
:102D900023640320C7E7A02384F83D3022685369E9
:102DA000C3F340035269C2F3802294F83DC05FFA36
:102DB0008CFCBCF1A00F09D043B93AB9FEF7FCF97D
:102DC000801BA842E7D8002DE8D1E4E7202384F84F
:102DD0003D3023685A6912F0020F31D11A6842F46B
:102DE00000721A6023686FF480625A61009619239A
:102DF000012229492046FFF720FA002849D101374E
:102E00004F4538D22268136843F4807313600096EC
:102E10002B4600224FF001112046FFF70EFA002842
:102E2000AFD1236808F0FE021A61FEF7C5F9064625
:102E300022685369C3F340035269C2F38022B4E7A6
:102E40001A6842F400721A600023039323685A69D7
:102E500003929B690393039B0096192301220E4959
:102E60002046FFF7EAF990B9202384F83D3000238B
:102E700084F83C3057E7202384F83D30002384F861
:102E80003C3001204FE702204DE702204BE70120B4
:102E900049E7012047E700BF020010000C480D4938
:102EA0000D4A002302E0D458C4500433C4188C42A5
:102EB000F9D30A4A0A4C002301E013600432A2420B
:102EC000FBD3FEF733F900F00FF8FDF7F5FF70477D
:102ED00000000020DC010020C45F0008DC010020AD
:102EE000A8020020FEE7000070B500260C4D0D4C36
:102EF000641BA410A64209D102F00CFE00260A4D64
:102F00000A4C641BA410A64205D170BD55F8043BC1
:102F100098470136EEE755F8043B98470136F2E74B
:102F2000BC5F0008BC5F0008BC5F0008C05F000811
:102F3000024B0146186800F07BB800BF0C0000206F
:102F4000024B0146186800F00BB800BF0C000020CF
:102F500003460244934200D1704703F8011BF9E78E
:102F600038B50546002940D051F8043C0C1F002B11
:102F7000B8BFE41801F046FF1C4A136833B9636018
:102F800014602846BDE8384001F042BFA34208D98A
:102F9000206821188B4201BF19685B6809182160FD
:102FA000EDE71A465B680BB1A342FAD911685018D5
:102FB000A0420BD120680144501883421160E0D137
:102FC00018685B68014411605360DAE702D90C238A
:102FD0002B60D6E7206821188B4201BF19685B6817
:102FE0000918216063605460CBE738BD940200206B
:102FF00070B50E4E0C463168054611B900F07AFDE9
:1030000030602146284600F075FD431C0AD0C41CE0
:1030100024F00304A04207D0211A284600F06AFDDC
:10302000013001D14FF0FF34204670BD98020020DE
:103030002DE9F041CD1C25F0030508350C2D38BFD6
:103040000C25002D074601DBA94205D90C230026DB
:103050003B603046BDE8F0812E4E01F0D3FE336870
:103060001C4634BB29463846FFF7C2FF431C0446C2
:103070004DD134682646002E40D12368314638466B
:1030800004EB030800F036FD80453AD12168033592
:103090006D1A25F0030508350C2D38BF0C25384670
:1030A0002946FFF7A5FF01302BD023682B4423606E
:1030B0000EE02268521B1ED40B2A16D96119A342B6
:1030C000256018BF5960636808BF316062514B606A
:1030D000384604F10B0601F09BFE26F00706231D7F
:1030E000F21AB6D09B1BA350B3E76268A3420CBF91
:1030F00032605A60ECE723466468B2E7344676688B
:10310000B9E70C2338463B6001F082FEA1E7256059
:10311000DEE700BF94020020002B2DE9F0471F4698
:10312000BBBF03F100431F4600232D2388B0144684
:10313000129A109D1370149BDDF84CA023F0200808
:10314000B8F1460F05D0B8F1450F00D10135022383
:1031500000E0032307AA049206AACDE902A2CDE962
:10316000003522463B4600F023FEB8F1470F0646E5
:1031700002D1119BDB0722D5B8F1460F06EB0509FA
:1031800010D13378302B0AD1002200232046394653
:10319000FDF70AFC18B9C5F10105CAF80050DAF8C4
:1031A000003099440022002320463946FDF7FCFBFD
:1031B00008B1CDF81C903022079B4B4507D3304611
:1031C000079B159A9B1B136008B0BDE8F087591C3C
:1031D00007911A70F0E70346F7B5002903F8022BB0
:1031E000B6BF2D222B224942092942702BDD0DF159
:1031F0000704A4460A2791FBF7F60A46A64607FBF2
:103200001615632A05F13005314604F1FF340EF836
:10321000015CF0DC3031AEF1020504F8011C2946F6
:10322000441C61450AD30DF10902A2EB0E0265456B
:1032300088BF00221344181A03B0F0BD11F8012B07
:1032400004F8012FEDE7302330318370C170031D86
:10325000F1E700002DE9F04F91B00C46DDF86880F1
:1032600016461F46054601F045FD036818460993BA
:10327000FCF76EFF00230E93D8F800300A90073356
:1032800023F0070303F1080294F81890D4F800B073
:10329000C8F80020D3E90023C4E91223D4E9128A34
:1032A0002AF000430B934FF0FF3240469C4B0B99A2
:1032B000FDF7ACFB70BB4FF0FF324046984B0B99CB
:1032C000FDF786FB30BB0022002340465146FDF748
:1032D00075FB10B12D2384F84330924B9248B9F11D
:1032E000470F94BF9846804603234FF0000A23619E
:1032F0002BF00403236033462146284600970FAA8B
:1033000000F0D4F9013040F090804FF0FF3011B060
:10331000BDE8F08F4246534640465146FDF776FBE6
:1033200048B1BAF1000FB8BF2D238048B8BF84F868
:1033300043307F4BD3E7636809F0DF015A1C42D169
:1033400006236360002206920EAACDE904920DAA1C
:103350004BF4806303920DF13302CDE90132236017
:10336000636842460093284653460B91FFF7D4FE0C
:103370000B99804647290D9908D1C81C02DB636868
:10338000994240DDA9F102095FFA89F9B9F1650FA7
:103390001FD84A46013904F150000D91FFF71BFF79
:1033A0000E9A82461318012A236102DC2268D20792
:1033B00001D5013323619DF83330002B9BD02D23A1
:1033C00084F8433097E74729BCD1002BBAD10123B9
:1033D000B7E7B9F1660F18D1002963680BDD2161E9
:1033E00013B92268D00702D501330B4423614FF093
:1033F000000AA165DFE713B92268D20701D50233BD
:10340000F4E70123F2E74FF067090E9B994205DBD1
:1034100023682161D807EAD54B1CE7E70029CCBF18
:103420000122C1F102021344E0E723685A0507D4E0
:103430002369424631462846B84701302BD164E71C
:10344000B9F1650F40F2DD80D4E9120100220023BA
:10345000FDF7AAFA002833D0012331462846354A21
:10346000B84701303FF451AFDDE90D239A4202DB4A
:103470002368D8070FD5DDE9092331462846B84728
:1034800001303FF442AF4FF0000804F11A090E9BDF
:10349000013B434509DC23689B0700F10281E0689A
:1034A0000F9B9842B8BF184631E701234A46314680
:1034B0002846B84701303FF428AF08F10108E6E795
:1034C0000D9B002B38DC012331462846194AB847AA
:1034D00001303FF41AAFDDE90D23134302D1236815
:1034E000D907D8D5DDE9092331462846B847013048
:1034F0003FF40BAF4FF0000904F11A0A0D9B5B4239
:103500004B4501DC0E9B94E7012352463146284689
:10351000B84701303FF4F9AE09F10109EEE700BF09
:10352000FFFFEF7FA05B0008A45B0008AC5B000816
:10353000A85B0008B05B00080E9AA36D9A42A8BF72
:103540001A46002A914637DC4FF0000B29EAE97948
:1035500004F11A02D4F858A0AAEB09035B4533DC46
:10356000DDE90D239A423BDB2368DA0738D40E9B52
:103570000D99A3EB0A02A3EB01099145A8BF91465F
:10358000B9F1000F34DC4FF0000829EAE97904F1C1
:103590001A0ADDE90D239B1AA3EB090343457FF7C4
:1035A0007AAF0123524631462846B84701303FF4EE
:1035B000ACAE08F10108ECE7134631464246284616
:1035C000B8470130C0D1A0E60123314628460B920E
:1035D000B84701303FF499AE0B9A0BF1010BB9E7F4
:1035E0003146DDE909232846B8470130BFD18CE6D2
:1035F0004B463146284608EB0A02B8470130C2D193
:1036000083E60E9A012A01DCDB0737D50123424607
:1036100031462846B84701303FF477AEDDE909234B
:1036200031462846B84701303FF46FAED4E9120165
:1036300000220023FDF7B8F9D8B90E9B08F101026A
:10364000013B31462846B84701300ED15DE60123E3
:103650004A4631462846B84701303FF456AE08F195
:1036600001080E9B013B4345F1DC534604F1500237
:10367000E0E64FF0000804F11A09F2E701234246A0
:10368000DFE701234A4631462846B84701303FF478
:103690003CAE08F10108E3680F995B1A4345F0DC82
:1036A000FDE64FF0000804F11909F4E72DE9F047B1
:1036B000164699468A680B6907469342B8BF134677
:1036C000336091F843200C46DDF820800AB10133C5
:1036D00033602368990642BF33680233336025683C
:1036E00015F0060506D104F1190AE36832689B1A41
:1036F000AB4228DC94F84320131E226818BF012334
:1037000092062DD44946384604F14302C0470130A1
:1037100020D02368E56803F00603042B18BF0025BA
:1037200032684FF00006A36808BFAD1A226908BFCF
:1037300025EAE5759342C4BF9B1AED181A34B542C9
:103740001AD1002008E00123524649463846C047B6
:10375000013003D14FF0FF30BDE8F0870135C4E7F9
:103760003020E11881F843005A1C94F84510224497
:10377000023382F84310C5E7012322464946384602
:10378000C0470130E6D00136D9E700002DE9FF47F8
:103790000F7E9146782F80460C469A460C9D01F18B
:1037A000430207D8622F0AD8002F00F0D980582F83
:1037B00000F0A48004F1420584F842703AE0A7F1D9
:1037C0006303152BF6D801A151F823F02538000822
:1037D00039380008B5370008B5370008B537000894
:1037E000B537000839380008B5370008B537000884
:1037F000B5370008B53700084739000869380008B0
:1038000029390008B5370008B537000869390008BC
:10381000B537000869380008B5370008B537000823
:10382000313900082B681A1D1B682A6004F1420513
:1038300084F842300123A4E020682968060601F1DB
:1038400004030AD50E682B60002E03DA2D2376427E
:1038500084F843300A235E4819E00E6810F0400FE8
:103860002B6018BF36B2EFE72B682068191D29605E
:10387000010601D51E6802E04606FBD51E886F2FA3
:103880000CBF08230A235248002184F843106568BE
:10389000002DA8BF2168A560A4BF21F0040121600C
:1038A0000EB9002D4DD01546B6FBF3F103FB1167A1
:1038B000C75D05F8017D3746BB420E46F4D9082B9B
:1038C0000BD12368DE0708D5236961689942DEBF02
:1038D000302305F8013C05F1FF35521B22614B46B0
:1038E00021464046CDF800A003AAFFF7DFFE0130D5
:1038F0004CD14FF0FF3004B0BDE8F087344881F878
:1039000045702968236851F8046B29601D0614D599
:10391000DF0744BF43F0200323601EB9236823F070
:10392000200323601023AFE7236843F020032360C4
:103930007823284884F84530E3E7590648BFB6B2F3
:10394000E6E71546BBE72B682668181D6169286005
:1039500035061B6801D5196002E07006FBD5198099
:10396000002315462361BAE72B6800211A1D2A603F
:103970001D686268284601F029FA08B1401B6060A2
:1039800063682361002384F84330A8E72A46494648
:1039900040462369D0470130ABD023689B0713D43E
:1039A000E068039B9842B8BF1846A4E7012332465B
:1039B00049464046D04701309BD00135E368039922
:1039C0005B1AAB42F2DCEBE7002504F11906F5E7E0
:1039D000B25B0008C35B00080FB40A4B13B51C6848
:1039E00024B1A36913B9204601F0E6F805AB2046DF
:1039F000049AA168019301F0CFFD02B0BDE8104028
:103A000004B070470C00002070B50E46054618B192
:103A100083690BB901F0D0F8AB69AC6813B92846DB
:103A200001F0CAF82C4B9C4220D16C68636EDB0716
:103A300005D4A389980502D4A06D01F060F9A3898B
:103A400019071DD52369DBB1013EA36816F8011FD4
:103A5000013BA36039BB002B38DA22460A212846F5
:103A600000F058F8013011D00A2511E01B4B9C42A0
:103A700001D1AC68DAE71A4B9C4208BFEC68D5E785
:103A80002146284600F098F80028DDD04FF0FF3599
:103A9000636EDA0705D4A3899B0502D4A06D01F0FB
:103AA0002FF9284670BD002B04DAA2699A4206DC81
:103AB0000A2904D023685A1C22601970C5E72246DF
:103AC000284600F027F80130BFD1DFE70A25236838
:103AD0005A1C22601D70DBE7A85C0008C85C000867
:103AE000885C0008024B01461868FFF78DBF00BFD5
:103AF0000C00002038B50023054D044608462B6015
:103B000001F0F8FF431C02D12B6803B1236038BDDC
:103B1000A0020020F8B50E461446054618B1836988
:103B20000BB901F049F8214B9C422BD16C68A36979
:103B3000A360A3891A072FD523696BB32369206873
:103B4000F6B2C01A63693746834204DC2146284630
:103B500000F09EFF30BBA3680130013BA3602368E7
:103B60005A1C22601E706369834204D0A389DB075C
:103B700006D50A2E04D12146284600F089FF88B9CF
:103B80003846F8BD0A4B9C4201D1AC68CFE7094BDF
:103B90009C4208BFEC68CAE72146284600F00CF8B2
:103BA0000028CBD04FF0FF37EAE700BFA85C000841
:103BB000C85C0008885C0008324B70B51D6806467A
:103BC0000C4625B1AB6913B9284600F0F5FF2E4B22
:103BD0009C420FD16C68A389B4F90C2019072CD42E
:103BE000DD0611D40923336042F040034FF0FF306B
:103BF000A3813EE0254B9C4201D1AC68EBE7244B0E
:103C00009C4208BFEC68E6E7580712D5616B41B1EA
:103C100004F14403994202D03046FFF7A1F9002392
:103C20006363A38923F02403A381002363602369D2
:103C30002360A38943F00803A38123694BB9A389B7
:103C400003F42073B3F5007F03D02146304601F022
:103C50007DF8A089B4F90C2010F001030AD00023EC
:103C6000A36063695B42A361236943B910F08000DC
:103C7000BAD170BD810758BF6369A360F4E7002023
:103C8000F7E700BF0C000020A85C0008C85C000833
:103C9000885C00082DE9F74F03690C690746A342C9
:103CA000C0F28280013C00F1140501F1140805EB1B
:103CB0008403019358F8243055F8242001339A42A4
:103CC000B2FBF3F64FEA840B08EB840931D34FF0D3
:103CD000000E4046AC46F24650F8042B93B206FB69
:103CE00003E3120C4FEA134E9BB206FB02E2AAEB6F
:103CF0000303DCF800A04FEA124E1FFA8AFA53447D
:103D0000DCF800A092B2C2EB1A4202EB23429BB253
:103D100043EA024381454FEA224A4CF8043BDBD296
:103D200055F80B302BB9019B043B9D421A462FD30B
:103D30003C61384601F0F0FA002825DB28464FF0B8
:103D4000000C013658F8041BD0F800E08BB2ACEB45
:103D500003031FFA8EF213440A0CC2EB1E4202EB5D
:103D600023429BB243EA0243C1454FEA224C40F84A
:103D7000043BE7D255F8242005EB840322B9043B29
:103D80009D421A460AD33C61304603B0BDE8F08F2D
:103D90001268043B002ACBD1013CC6E71268043B01
:103DA000002AF0D1013CEBE70020EEE70000000024
:103DB0002DE9F04F16461F46446A99B00546CDE9F5
:103DC0000467DDF8948074B91020FFF7B1F802465B
:103DD000686220B9EA21A84BA84801F063FDC0E958
:103DE00001440460C4606B6A196851B15A680123C8
:103DF00093404A608B60284601F050F800226B6ABD
:103E00001A603B1EAFBF0023012223F0004305933D
:103E1000A8BFC8F80030DDF81490994BB8BFC8F8B7
:103E2000002033EA090319D142F20F73249A136078
:103E3000C9F31303334300F07F85269B53B9914B9D
:103E400022E0914B03930833269A1360039819B02C
:103E5000BDE8F08F8B4B03930333F5E7DDE90434C2
:103E6000CDE90C34DDE90C0100220023FCF79CFDB8
:103E7000804658B10123249A1360269B002B00F042
:103E8000588582481860431E0393DFE716AB019301
:103E900017AB00932846DDE90C2301F0E5FAC9F3DE
:103EA0000A548346002C7FD0DDE90C010D9BA4F25F
:103EB000FF34C3F3130343F07F5141F44011CDF8B5
:103EC0004C800022724BFCF74FF965A3D3E9002325
:103ED000FCF702FB64A3D3E90023FCF747F906468D
:103EE00020460F46FCF78EFA61A3D3E90023FCF7C6
:103EF000F3FA02460B4630463946FCF737F90646D8
:103F00000F46FCF799FD00228246002330463946D1
:103F1000FCF754FD48B15046FCF774FA32463B4674
:103F2000FCF742FD08B90AF1FF3ABAF1160F58D86A
:103F3000DDE90C01574B03EBCA03D3E90023FCF77F
:103F40003DFD00284FD000230AF1FF3A0F93169B46
:103F50001C1B631E099349BFC4F101030023069390
:103F6000002354BF06930993BAF1000F3DDB099B70
:103F7000CDF838A05344099300230A93229B092BC0
:103F800000F28C80052BC4BF043B2293229BC8BF48
:103F90000024A3F10203D8BF0124032B00F28A807E
:103FA000DFE803F02D4F4D5BDDE916431C4404F2BE
:103FB0003243202BC3BFC3F1400304F2124009FA7D
:103FC00003F3C3F12003C6BF26FA00F0184306FA34
:103FD00003F0FCF707FA0123A1F1F871013C1393F8
:103FE0006FE70123B2E70F90B1E7069BA3EB0A034B
:103FF0000693CAF100030A9300230E93BEE7002341
:104000000B93239B002B58DC4FF001094B46CDF856
:104010002090CDF88C900022686A4260042202F160
:1040200014069E4241684ED9284600F0F7FE0390E0
:1040300000284CD102464FF4D571174BCCE6012332
:10404000DEE700230B93239B0AEB030909F101032D
:10405000012B0893B8BF0123DDE70123F2E700BF7E
:1040600061436F63A787D23FB3C8608B288AC63F7E
:10407000FB799F501344D33FE15B0008F85B0008D5
:104080000000F07FDD5B0008D45B0008B15B000836
:104090000000F83F905D0008765C000801240023D2
:1040A0000B9422934FF0FF3900221223CDF8209079
:1040B0002392B0E701230B93F4E7DDF88C904B4695
:1040C000CDF82090A7E7013141605200A7E76B6A65
:1040D000039A1A60089B0E2B00F2A880002C00F0B7
:1040E000A580BAF1000F34DD9A4A0AF00F0302EB03
:1040F000C3031AF4807FD3E90034CDE910344FEACA
:104100002A1416D0DDE90C01934B0327D3E90823C9
:10411000FCF70CFBCDE9040104F00F048E4E54B9FA
:10412000DDE91023DDE90401FCF700FBCDE9040122
:1041300029E00227F2E7E10708D5DDE91001D6E919
:104140000023FCF7C9F9CDE91001013764100836E6
:10415000E5E700F0A580DDE90C01CAF100047D4B24
:1041600004F00F0203EBC203D3E90023FCF7B4F918
:1041700002270023CDE90401774E2411002C40F0E2
:104180008480002BD2D10F9B002B00F08B80DDE9C7
:104190000434CDE91034DDE9100100226F4BFCF747
:1041A0000DFC00287ED0089B002B7BD0B9F1000FBE
:1041B00038DDDDE910010022694BFCF78DF94C4632
:1041C000CDE904010AF1FF3801373846FCF71AF946
:1041D000DDE90423FCF780F90022624BFBF7C6FF00
:1041E000A1F15076CDE910011196002C5DD1DDE9E9
:1041F000040100225C4BFBF7B7FF02460B46CDE9FA
:1042000004233346109AFCF7F7FB002840F09C8209
:10421000DDE90401109A06F10043FCF7CFFB00280A
:1042200040F09082DDE90C34CDE90434179B002B7B
:10423000C0F25281BAF10E0F00F34E81454B03EBF1
:10424000CA03D3E90034CDE90634239B002B80F266
:10425000DB80089B002B00F3D78040F07282DDE901
:1042600006010022404BFCF737F9DDE90423FCF797
:10427000B9FB089C2646002840F048823123039F62
:104280000AF1010A07F8013B44E2E20705D5D6E945
:104290000023FCF721F901230137641008366DE78C
:1042A000022770E7D046089C8FE70399294B2144E9
:1042B00012910B9903EBC403DDE9106753E9022364
:1042C000002955D000202949FCF730FA3B463246F8
:1042D000FBF74AFFCDE91001039FDDE90401FCF77C
:1042E000ABFB0446FCF78EF802460B46DDE9040101
:1042F000FBF73AFF02460B463034CDE90423DDE9F3
:10430000102307F8014BFCF759FB002874D1DDE9B5
:10431000042300201149FBF727FFDDE91023FCF7F8
:104320004DFB002840F0B780129B9F423FF47AAFCC
:10433000DDE9100100220A4BFCF7CEF80022CDE99E
:104340001001DDE90401064BFCF7C6F8CDE90401D4
:10435000C3E700BF905D0008685D00080000F03F03
:104360000000244000001C40000014400000E03F1A
:1043700030463946FCF7B0F8129BCDE91001039C9A
:104380001493DDE90401FCF757FB1590FCF73AF8AC
:1043900002460B46DDE90401FBF7E6FE159B0646E7
:1043A000303304F8013B129B0F469C424FF0000251
:1043B00024D1DDE91001B04BFBF7D8FE02460B46D5
:1043C00030463946FCF718FB002863D1DDE910239D
:1043D0000020A949FBF7C8FE02460B463046394685
:1043E000FCF7ECFA00283FF41DAF149F7B1E1493DA
:1043F00017F8013C302BF8D0C2463BE09F4BFCF74E
:104400006BF8CDE90401BCE7039FDDE90489DDE930
:10441000062340464946FCF789F9FCF70DFB0446A4
:10442000FBF7F0FFDDE90623FCF756F802460B46E2
:1044300040464946FBF798FE04F1300607F8016B49
:10444000039EDDF820C0BE1BB44502460B4636D1A4
:10445000FBF78CFEDDE9062380468946FCF7CCFAA3
:1044600058BBDDE9062340464946FCF79DFA08B1F2
:10447000E10722D42846594600F010FD00233B7086
:10448000249B0AF101001860269B002B3FF4DEAC50
:104490001F60DBE427463B461F4613F8012D392AEF
:1044A00007D1039A9A42F7D13022039908F1010803
:1044B0000A701A7801321A709EE7D046EBE70022A4
:1044C0006E4BFCF709F80022002380468946FCF772
:1044D0006BFA00289BD0CDE70B9A002A00F0D08021
:1044E000229A012A00F3AE80139A002A00F0A680D7
:1044F00003F233430A9C069F069A01211A4406924E
:10450000099A28461A44099200F07EFD0646002FBB
:104510000CDD099B002B09DDBB42A8BF3B46069A78
:10452000FF1AD21A0692099AD31A09930A9BF3B179
:104530000B9B002B00F0A880002C10DD314622469A
:10454000284600F01FFE5A4601460646284600F05F
:1045500071FD80465946284600F0A0FCC3460A9BE0
:104560001A1B04D05946284600F00CFE8346012150
:10457000284600F049FD0E9B0446002B40F3868040
:104580001A460146284600F0FDFD229B0446012BF9
:104590007FDD4FF00008236904EB8303186900F006
:1045A000E5FCC0F12000099B184410F01F0000F04A
:1045B0009280C0F12003042B40F38A80C0F11C00DC
:1045C000069B074403440693099B03440993069BF7
:1045D000002B05DD59461A46284600F02DFE83467D
:1045E000099B002B05DD21461A46284600F024FED3
:1045F00004460F9B002B70D02146584600F08CFEDD
:1046000000286ADA002359460A22284600F068FC8E
:104610000B9B83460AF1FF3A002B00F09481314650
:1046200000230A22284600F05BFCB9F1000F064681
:1046300000F39380229B022B57DC8EE0169BC3F184
:10464000360357E7089B5C1E0A9BA342B7BF0A9B31
:104650001C1BE21A0E9BBEBF0A949B180E93089B6C
:10466000B8BF0024002BBBBF069B089A069F9F1A69
:10467000ACBF089B00233FE70000E03F0000244060
:104680000A9C069F0B9E42E70A9A6BE7229B012B2E
:1046900019DC049BBBB9059BC3F313039BB9059BB2
:1046A00023F000431B0D1B0583B14FF00108069B4F
:1046B00001330693099B013309930E9B002B7FF472
:1046C0006AAF01206FE74FF00008F6E79846F4E77D
:1046D0003FF47DAF18461C3072E7089B002B36DC98
:1046E000229B022B33DDDDF82090B9F1000F0DD1B4
:1046F00021464B460522284600F0F2FB01460446BF
:10470000584600F009FE00283FF7B8AD239B039FF1
:104710006FEA030A4FF000082146284600F0BEFB6E
:10472000002E3FF4A7AEB8F1000F05D0B04503D07E
:104730004146284600F0B2FB3146284600F0AEFB69
:1047400098E600242646E1E7C246264696E50B9BFE
:10475000DDF82090002B00F0FD80002F05DD3146B4
:104760003A46284600F068FD0646B8F1000F5CD0D6
:104770002846716800F052FB074628B9024640F20D
:10478000EA217F4BFFF728BB326906F10C010232A8
:1047900092000C3000F028FB01223946284600F038
:1047A0004BFDB0460646039B01330893039B4B44E5
:1047B0000A93049B03F001030993089B2146013BE4
:1047C00058460493FFF766FA034641463033069095
:1047D00058460B9300F0A0FD3246814621462846FC
:1047E00000F0B6FDC26807460B9B02BB0146584667
:1047F00000F092FD02460B9B39462846CDE90B326C
:1048000000F04CFB229B0C9A089F43EA0201099B93
:104810000B430B9B0DD1392B29D0B9F1000F01DDD2
:10482000069B3133049A137076E73046B9E70122CC
:10483000E2E7B9F1000F06DB229941EA090909997B
:1048400059EA010120D1002AECDD5946012228460F
:10485000089300F0F1FC2146834600F05DFD00283E
:10486000089B02DCDED1DA07DCD5392BD8D139231D
:10487000049A13703B461F4617F8012C013B392A56
:1048800050D001321A7047E7002A03DD392BEED0F1
:104890000133C7E7089A0A9902F8013C8A422AD0F4
:1048A000594600230A22284600F01AFBB0458346E9
:1048B0004FF000034FF00A024146284607D100F0AE
:1048C0000FFB80460646089B0133089375E700F00E
:1048D00007FB3146804600230A22284600F000FBF1
:1048E0000646F0E7B9F1000FCCBF4F4601274FF065
:1048F0000008039A1744594601222846089300F0FD
:104900009BFC2146834600F007FD0028B2DC02D163
:10491000089BDB07AED43B461F4613F8012D302A17
:10492000FAD0F9E6039A9A42A5D131230AF1010A95
:1049300079E7144BFFF7A8BA269B002B7FF481AAD6
:10494000114BFFF7A1BAB9F1000F03DC229B022B38
:104950003FF7CBAE039F21465846FFF79BF9039ADA
:1049600000F1300307F8013BBA1A9145BADD594608
:1049700000230A22284600F0B3FA8346EBE700BF83
:10498000765C0008B05B0008D45B00088A89F8B543
:10499000054610070C4657D44B68002B04DC0B6C03
:1049A000002B01DC0020F8BDE66A002EFAD00023BF
:1049B00012F480522F682B6032D0606DA3895A07A1
:1049C00005D56368C01A636B0BB1236CC01A002352
:1049D0000246E66A2846216AB047431CA38906D1ED
:1049E00029681D292CD8294ACA40D60728D5002273
:1049F00062602269D904226004D5421C01D12B686F
:104A000003B96065616B2F600029CBD004F14403CA
:104A1000994202D02846FEF7A3FA00206063C2E75D
:104A2000216A01232846B047411CC7D12B68002BBF
:104A3000C4D01D2B01D0162B01D12F60B2E7A38962
:104A400043F04003A381AEE70F69002FAAD093077C
:104A500018BF00230E6808BF4B69F61B0F608B6000
:104A6000002E9FDD33463A462846216AD4F828C0F6
:104A7000E047002806DCA3894FF0FF3043F04003F5
:104A8000A38190E70744361AEAE700BF01004020FF
:104A900038B50B6905460C4613B90025284638BDC4
:104AA00018B183690BB900F087F8144B9C421BD1F5
:104AB0006C68B4F90C30002BEFD0626ED00704D4D0
:104AC000990502D4A06D00F01AF928462146FFF797
:104AD0005DFF636E0546DA07E0D4A3899B05DDD44C
:104AE000A06D00F00DF9D9E7054B9C4201D1AC68EF
:104AF000DFE7044B9C4208BFEC68DAE7A85C0008DB
:104B0000C85C0008885C0008002310B50446C0E9B2
:104B10000033C0E90433836081814366C2818361CD
:104B2000194608225C30FEF713FA054B24626362D3
:104B3000044BA362044BE362044B236310BD00BF2C
:104B4000F95700081B580008535800087758000808
:104B5000014900F0AFB800BF914A0008682270B563
:104B60004D1E55430E4605F17401FEF761FA0446E9
:104B700040B10021C0E900160C30A06005F16802C8
:104B8000FEF7E6F9204670BD014800F0B8B800BF56
:104B90009D020020014800F0B3B800BF9D02002034
:104BA000014800F0ACB800BF9E020020014800F0B0
:104BB000A7B800BF9E02002010B50446FFF7F0FF23
:104BC000A3691BB1BDE81040FFF7F0BFC4E9123381
:104BD0002365134B134A1B68A262A34208BF01233B
:104BE000204608BFA36100F01FF86060204600F077
:104BF0001BF8A060204600F017F800220421E060B6
:104C00006068FFF781FF01220921A068FFF77CFFA0
:104C100002221221E068FFF777FF0123A361D1E7A9
:104C20009C5B0008514B0008F8B50746FFF7ACFF46
:104C30001E4B1E68B36913B93046FFF7BDFF4836F7
:104C4000D6E90134013B03D533680BB33668F7E787
:104C5000B4F90C50D5B9164B04F15800E360656601
:104C600000F04CF8FFF796FF08222946C4E90155E9
:104C7000C4E904552560A56104F15C00FEF768F9FC
:104C8000C4E90D55C4E912552046F8BD6834D9E78A
:104C900004213846FFF762FF044630600028D5D172
:104CA000FFF778FF0C233B60EEE700BF9C5B00083A
:104CB0000100FFFF2DE9F84306468846002700F172
:104CC0004804D4E90195B9F1010905D52468002CFF
:104CD000F7D13846BDE8F883AB89012B07D9B5F980
:104CE0000E30013303D029463046C04707436835AC
:104CF000E9E70000004870476001002070477047F6
:104D0000704770B50E46B1F90E10144600291D46C5
:104D100096B008DA0022B6F90C302A601A0610D4D0
:104D20004FF480630EE06A4600F0FCFD0028F1DBE2
:104D3000019A02F47042A2F500535A425A412A6085
:104D4000EEE740230020236016B070BD8B8973B559
:104D50009D0706460C4607D504F1470323602361EF
:104D60000123636102B070BD6A4601ABFFF7C9FF62
:104D7000009905463046FEF75BF948B9B4F90C30A6
:104D80009A05EFD423F0030343F00203A381E3E782
:104D90000D4BB362A389206043F08003A381009B85
:104DA00020616361019B5BB13046B4F90E1000F0E5
:104DB000CBFD28B1A38923F0030343F00103A381B2
:104DC000A0890543A581CDE7514B0008034610B5E6
:104DD000C9B202449342184601D1002003E004788E
:104DE00001338C42F6D110BD0A44914200F1FF33E9
:104DF00000D1704710B511F8014B914203F8014FF3
:104E0000F9D110BD0148FFF77ABF00BF9C02002016
:104E10000148FFF775BF00BF9C02002070B5466ACD
:104E200004460D4676B91020FEF782F8024660620D
:104E300020B96621174B184800F034FDC0E901661F
:104E40000660C660666AF36883B1636ADB6853F81C
:104E50002500B8B9012101FA05F6721D204692001D
:104E600000F05EFB60B1C0E901560EE02122042192
:104E7000204600F055FB636AF060DB68002BE4D14C
:104E8000002070BD026843F825200023C0E90333E9
:104E9000F7E700BFE15B0008E85C000870B5466A10
:104EA00005460C4676B91020FEF742F802466862C5
:104EB00020B98A21084B094800F0F4FCC0E90166DA
:104EC0000660C6603CB16B6A6268DB6853F822100A
:104ED000216043F8224070BDE15B0008E85C0008F7
:104EE0002DE9F04107460C461E4600200D6901F1F0
:104EF000140CDCF80030013099B202FB01611E0C89
:104F00000B0C02FB063389B201EB034185424FEAE9
:104F100013464CF8041BECDC0EB3A368AB4219DC5F
:104F2000616838460131FFF779FF804628B90246AB
:104F3000B5210C4B0C4800F0B5FC226904F10C01C2
:104F4000023292000C30FFF74FFF21463846FFF740
:104F5000A5FF444604EB850301355E6125612046CB
:104F6000BDE8F081765C0008E85C0008020C1204E1
:104F70000346CAB90304102013F07F4F04BF1B027D
:104F8000083013F0704F04BF1B01043013F0404F82
:104F900004BF9B000230002B05DB13F0804F00F1B3
:104FA000010008BF202070470020E5E703680246A3
:104FB00013F007000BD0D90721D4980749BF5B082D
:104FC0009B08012013605CBF02201360704799B2F8
:104FD00009B910201B0CD9B209B908301B0A1907EE
:104FE00004BF1B090430990704BF9B080230D9078E
:104FF00003D45B0800F1010003D013607047002068
:10500000704720207047000010B50C460121FFF7C3
:1050100005FF024628B94FF4A071044B044800F084
:1050200041FC01234461036110BD00BF765C0008B0
:10503000E85C00082DE9F04F91460A69D9F8103074
:105040000C469A42BEBF0B464C4699462769D9F892
:1050500010A0A368616807EB0A06B34285B0B8BF29
:105060000131FFF7DBFE30B9024640F25D11434BE0
:10507000434800F017FC00F114052B46002205EB15
:105080008608434521D304F1140303EB870709F194
:10509000140303EB8A0202923A1B153A22F0030230
:1050A000043204F115018F4238BF04220192029AA2
:1050B00003939A420CD8002E03DD58F8043D002BD0
:1050C00059D0066105B0BDE8F08F43F8042BD8E74E
:1050D000B3F800A0BAF1000F23D0A9464FF0000C9E
:1050E00004F1140E5EF8042BD9F800101FFA82FBAD
:1050F00089B20AFB0B116144D9F800C0120C4FEAC7
:105100001C4C0AFB02C202EB114289B241EA024185
:1051100077454FEA124C49F8041BE3D8019A45F849
:1051200002C0039A0433B2F80290B9F1000F20D004
:10513000AE464FF0000A296804F1140CBCF800B028
:10514000BEF8022089B209FB0B22924441EA0A41CF
:105150004EF8041B5CF8042BBEF80010120C09FB7F
:105160000211674501EB1A414FEA114AE6D8019A4C
:10517000A95004359BE7013E9DE700BF765C00081F
:10518000E85C00082DE9F843154612F003020646D4
:105190000F4607D0254C013A002354F82220FFF790
:1051A0009FFE0746AD103DD0746A7CB91020FDF714
:1051B000BFFE0246706228B94FF4D7711C4B1D48E0
:1051C00000F070FBC0E901440460C460D6F824809C
:1051D000D8F808404CB940F271213046FFF714FF6F
:1051E00000230446C8F8080003604FF00009EB07ED
:1051F0000AD5394622463046FFF71CFF804639461D
:105200003046FFF74BFE47466D100BD0206838B98B
:10521000224621463046FFF70DFF2060C0F800907F
:105220000446E4E73846BDE8F88300BF585E00084E
:10523000E15B0008E85C00082DE9F0470C460746F2
:1052400091462369496803EB6218A3684FEA621A22
:1052500008F10106B3420BDB3846FFF7DFFD0546D8
:1052600048B9024640F2D911294B2A4800F01AFBEE
:1052700001315B00EEE7002300F1140100F11002A0
:105280001846534537DB20692AEAEA7A04F1140309
:1052900019F01F0901EB8A0103EB80002FD08A4629
:1052A0004FF0000CC9F1200E1A6802FA09F242EA26
:1052B0000C024AF8042B53F8042B984222FA0EFCF5
:1052C000F2D8031B153B23F00303043304F115024A
:1052D000904238BF042341F803C0BCF1000F01D055
:1052E00008F10206013E384621462E61FFF7D6FD41
:1052F0002846BDE8F08742F8040F0133C1E70439BE
:1053000053F8042B984241F8042FF9D8EAE700BF7C
:10531000765C0008E85C000803460A69006930B55D
:10532000801A0DD11433143103EB820401EB820196
:1053300054F8045D51F8042D954202D004D30120A5
:1053400030BDA342F4D3FBE74FF0FF30F8E7000095
:105350002DE9F84F0D460746114628461446FFF73B
:10536000DBFF061E11D131463846FFF757FD0246D6
:1053700028B940F232213A4B3A4800F093FA01231F
:10538000C0E904361046BDE8F88FA4BF23462C467A
:1053900038466168A6BF1D4600260126FFF73EFD80
:1053A000024618B94FF410712D4BE5E702F11408CD
:1053B000C2464FF0000C2769C6602E6904F1140044
:1053C00005F1140900EB870E09EB8606103454F83A
:1053D00004BF59F8043B1FFA8BF18C4499B21B0CA3
:1053E000ACEB0101C3EB1B4303EB214389B24FEA52
:1053F000234C4E4541EA03434AF8043BE7D8731B6C
:10540000153B23F0030315350433AE4238BF0423A4
:10541000184443441E46054675450ED30EF103015C
:10542000091A21F003010338864538BF00211944C9
:1054300051F8043D8BB11761A4E755F8048B1FFAAE
:1054400088F161440C1404EB184489B241EA044128
:105450004FEA244C46F8041BDEE7013FE8E700BFB3
:10546000765C0008E85C00082DE9F3410121DDE9E4
:10547000087690461D46FFF7D1FC044630B9024637
:1054800040F20A31244B254800F00CFAC5F313030F
:10549000C5F30A552DBB0193B8F1000326D0684629
:1054A0000093FFF783FD0099F0B1019AC0F120034A
:1054B00002FA03F30B43C24063610192019B002B8C
:1054C00014BF02210121A3612161C5B1A5F23345B9
:1054D0000544C0F135003D603060204602B0BDE8B3
:1054E000F08143F48013D6E76161E7E701A8FFF795
:1054F0005DFD0121019B216163612030E5E704EB43
:105500008103A0F2324038601869FFF72FFDC0EB2D
:1055100041113160E1E700BF765C0008E85C0008FB
:1055200070B5A1FB025434B92946FDF781FD06464A
:1055300028B9304670BD0C2200260260F9E72A46E1
:105540002146FDF705FDF4E7936810B4013B002BFD
:10555000936007DA9469A34201DB0A2902D110BCE7
:10556000FEF7D8BA1368581C10601970084610BCB2
:105570007047F8B506460F461446D518AC4201D11F
:10558000002007E03A46304614F8011BFFF7DCFF25
:10559000431CF3D1F8BD00002DE9F04F0D46144631
:1055A000984606469DB018B183690BB9FFF704FB16
:1055B000894B9D421BD175686B6ED90705D4AB89A9
:1055C0009A0502D4A86DFFF79AFBAB891B0701D59A
:1055D0002B69EBB929463046FEF7EEFAC0B16B6E87
:1055E000DC070ED54FF0FF301DB0BDE8F08F7B4BD0
:1055F0009D4201D1B568DFE7794B9D4208BFF56850
:10560000DAE7AB899805EDD4A86DFFF779FBE9E7F8
:105610000023099320238DF8293030234FF001090E
:10562000CDF80C80DFF8BC818DF82A3023469A46ED
:1056300013F8012B0AB1252AF9D1BAEB040B0BD0D0
:105640005B46224629463046FFF793FF013000F0C3
:10565000AA80099A5A4409929AF80030002B00F067
:10566000A28000234FF0FF32CDE905230AF1010AA1
:10567000049307938DF853301A935446052214F877
:10568000011B5848FFF7A2FB049AD8B9D10644BFC2
:1056900020238DF85330130744BF2B238DF853304C
:1056A0009AF800302A2B15D0544600204FF00A0CEF
:1056B000079A214611F8013B303B092B4ED9B0B176
:1056C000079214E0A0EB080309FA03F31343A24680
:1056D0000493D2E7039B191D1B680391002BBBBFEA
:1056E0005B4242F0020207930793B8BF049223780B
:1056F0002E2B0CD163782A2B35D1039B02341A1D33
:105700001B680392002BB8BF4FF0FF330593DFF8FF
:10571000D8A0032250462178FFF758FB40B1402320
:10572000A0EB0A0003FA00F0049B01340343049346
:1057300014F8011B06222D488DF82810FFF746FBB0
:1057400000283FD02A4B1BBB039B073323F00703E2
:1057500008330393099B3B44099367E70C460120F8
:105760000CFB0232A5E700234FF00A0C1946013466
:105770000593204610F8012B303A092A03D9002B53
:10578000C5D00591C3E7044601230CFB0121F0E7D6
:1057900003AB00932A463046164B04A9FDF75AFD89
:1057A0000746781CD6D16B6ED90705D4AB899A050C
:1057B00002D4A86DFFF7A4FAAB895B063FF512AFE0
:1057C000099811E703AB00932A463046094B04A918
:1057D000FDF7DCFFE4E700BFA85C0008C85C000838
:1057E000885C0008645E00086A5E00086E5E00085F
:1057F000553200087355000810B50C46B1F90E106B
:1058000000F0D6F80028ABBF636DA3891B1823F402
:105810008053ACBF6365A38110BD2DE9F0411F46E5
:105820008B890546DB050C46164605D5022300226A
:10583000B1F90E1000F098F8A389324623F4805392
:10584000A38128463B46B4F90E10BDE8F04100F0B4
:1058500017B810B50C46B1F90E1000F085F8431CCE
:10586000A38915BF606523F4805343F48053A3815B
:1058700018BFA38110BDB1F90E1000F031B80000BF
:1058800038B50446084611460022054D2A601A46DE
:10589000FBF7BCFA431C02D12B6803B1236038BD6F
:1058A000A00200201FB514461A46094B05461B6886
:1058B000D8684CB1074BCDE9013400912B4606491D
:1058C00000F01EF800F093F8044B1C46F3E700BF0D
:1058D0000C000020755E0008825E0008B05E0008C3
:1058E00038B50023054D044608462B6000F0CAF881
:1058F000431C02D12B6803B1236038BDA0020020F5
:105900000EB403B5014603AB054853F8042B0068F9
:105910000193FFF741FE02B05DF804EB03B070475E
:105920000C00002038B50023064D044608461146F9
:105930002B6000F0AFF8431C02D12B6803B1236049
:1059400038BD00BFA002002038B50023054D044635
:1059500008462B6000F0AEF8431C02D12B6803B15F
:10596000236038BDA002002038B504460846114621
:105970000022054D2A601A4600F0ACF8431C02D103
:105980002B6803B1236038BDA002002082B001B9AA
:1059900001A942B14BB113780B601278101E18BFE9
:1059A000012002B070471046FBE76FF00100F8E7F6
:1059B00038B50446084611460022054D2A601A46AD
:1059C00000F090F8431C02D12B6803B1236038BD6E
:1059D000A00200200346084641B1FF2A04D98A22CA
:1059E0004FF0FF301A60704701200A7070470620A0
:1059F00008B500F02BF8012000F08AF81F2938B50F
:105A000004460D4604D9162303604FF0FF3038BD1D
:105A1000426C12B152F821304BB9204600F030F8F8
:105A20002A4601462046BDE8384000F017B8012B51
:105A30000AD0591C03D1162303600120E7E7002494
:105A4000284642F8254098470020E0E7024B0146EF
:105A50001868FFF7D3BF00BF0C00002038B5002343
:105A6000064D0446084611462B6000F02BF8431CF7
:105A700002D12B6803B1236038BD00BFA002002013
:105A800000F010B85822024B4FF0FF301A607047F8
:105A9000A00200205822024B4FF0FF301A607047DE
:105AA000A00200205822024B4FF0FF301A607047CE
:105AB000A00200205822024B00201A60704700BF4D
:105AC000A00200205822024B4FF0FF301A607047AE
:105AD000A00200205822024B4FF0FF301A6070479E
